:1020000000800020F1230000D9230000D923000024
:1020100000000000000000000000000000000000C0
:10202000000000000000000000000000D9230000B4
:102030000000000000000000D9230000452400003B
:10204000D9230000D9230000D9230000D9230000A0
:10205000D9230000D9230000D9230000DD2300008C
:10206000D923000025230000D9230000D923000034
:10207000D9230000D923000035230000D923000014
:10208000D9230000D9230000D9230000D923000060
:1020900000000000D9230000D9230000D92300004C
:1020A000D9230000D9230000D9230000D923000040
:1020B0000000000010B5064C2378002B07D1054B1B
:1020C000002B02D0044800E000BF0123237010BDA4
:1020D000A000002000000000E4510000044B10B5F7
:1020E000002B03D00349044800E000BF10BDC046E8
:1020F00000000000A4000020E4510000F7B50E002D
:10210000144917000193040002F0EDFA124D31005A
:10211000280002F085FA00F0A3F9060000F0A0F90B
:10212000F31983420CD9280001F098FF0028F5D05C
:10213000280002F09FF9C1B2200002F032FBF2E762
:10214000019B002B03D02100044802F05AFA200022
:10215000FEBDC046E25100000403002080050020BF
:1021600070B5FA2505248AB0AD001E4901A802F019
:10217000BAFA1D4904A802F0B6FAFA220123920025
:1021800004A907A8FFF7BAFF07A901A802F0E0FA1F
:1021900007A802F059FA04A802F056FA134907A852
:1021A00002F0A1FA07A901A802F014FB060007A893
:1021B00002F04AFA002E09DB0D490E4802F03AFA05
:1021C00001A802F041FA01200AB070BD280000F019
:1021D0007DF9013C01A802F037FA002CC5D120009E
:1021E000F2E7C046E25100004C4C00004F4C0000AA
:1021F000524C00008005002070B52D4C0121236851
:10220000D8B200F0E5FA2B4E01213368D8B200F0C5
:10221000DFFA294D01212B68D8B200F0D9FA3068D5
:102220000021C0B200F020FB28680121C0B200F0FC
:102230001BFB23680121D8B200F016FBE1211F48E7
:10224000490201F003FF23680021D8B200F00CFB23
:102250001B4800F03BF923680121D8B200F004FBD1
:10226000184800F033F9E121174D4902280000F029
:102270002DFDFFF775FF154B011E187012D1236855
:10228000D8B200F0F1FA0E4800F020F920680121E0
:10229000C0B200F0E9FA0B4800F018F90C49280028
:1022A00002F0C8F928000B4902F0C4F970BDC0461D
:1022B000040000200800002000000020040300208B
:1022C000B80B00001027000080050020BC00002093
:1022D0006F4C00008B4C000070B5104C200001F0DA
:1022E000BDFE0F4D002809DD200002F0C3F8C1B289
:1022F000280000F0EFFC00F00DF9EEE7280000F0F8
:10230000E7FD002809DD280000F01EFEC1B2200014
:1023100002F062F800F0FEF8F0E770BD0403002060
:102320008005002010B5024802F003F810BDC04639
:102330000403002010B5024801F0FBFF10BDC046A9
:10234000C0000020F7B501240326154F15493800B9
:1023500000F064FB1449154800F060FB144915486F
:1023600000F05CFB1449154800F058FB144915486F
:1023700000F054FB144D1549280000F04FFB3900C4
:102380000096230001940022114801F04BFF0096B3
:10239000290001941E231F220E4801F043FFF7BDC0
:1023A0004805002000080042000C004250050020B3
:1023B0000010004258050020001400426005002073
:1023C000001800426805002070050020001C004233
:1023D00004030020C0000020FEE70000034B10B5FE
:1023E0001B68002B00D0984710BDC0467805002020
:1023F00070B50F490F4CA14204D100F08FF802F0E4
:10240000EFF9FEE70C4D00238D42F6D0CA18E8180C
:10241000A24205D3094B8242EFD00949002204E0D1
:10242000006804331060F1E704C38B42FCD3E4E797
:1024300000000020A0000020E8510000A0000020C3
:10244000B80B002010B500F066F8002801D100F0AC
:1024500057F810BD014B18607047C0467805002042
:10246000014B18687047C0467C050020F7B513483B
:10247000012284461249134C8E68636805689B0EDE
:102480001340019288686268019F920E3A40674645
:102490003F6893420ED1BD420CD186420AD35B19EC
:1024A000FA254868AD00861B07486B437043000D52
:1024B000C018FEBD3D0013000600E3E77C050020C8
:1024C00010E000E000ED00E05555000070B5041E7E
:1024D00010D0FFF7CBFF050000F01CF8FFF7C6FF98
:1024E000054B401B9842F7D9FA23013C9B00ED189D
:1024F000002CF3D170BDC046E70300007047000018
:1025000010B5034A13680133136000F04BFA10BD95
:102510007C05002070470020704700001E2270B527
:1025200046484749436893431C3A13434360082392
:102530008C6923438B61434C434B9C829C8A14439C
:102540009C82DC681442FCD00124404A1470157847
:10255000254203D055786DB2002DF8DB012494603C
:10256000547864B2002CFBDB394C5460547864B26C
:10257000002CFBDB8224E4015480547864B2002CEC
:10258000FBDB02249C840E34DD682542FCD0314CF8
:10259000DC621024DD682542FCD09D8C2E4C2C433F
:1025A0009C841024DD682542FCD002249D8C80266A
:1025B0002C439C844024DD683542FCD0DD682542F4
:1025C000F9D01024DD682542FCD0002494605478B2
:1025D00064B2002CFBDB214C5460547864B2002CB4
:1025E000FBDB1C6A1E4D2C4080251C621C6AAC4320
:1025F0001C62032393601B4B536053785BB2002B28
:10260000FBDB0023FF240B72174A4B728B72CB72D9
:10261000164B1A60164B174A1B6811689A065B0125
:10262000C90E2340520F12020B431343124A138563
:10263000802342681343436070BDC04600400041A0
:10264000000400400C06000000080040000C0040A0
:1026500001050100B905FF7D040A00000007030021
:10266000FFFCFFFF03060100006CDC020C000020F1
:10267000246080002060800000400042FA21314B3D
:1026800010B51868890002F0DDF82F4B0138984228
:1026900056D82E492E4A4860C020136A00061B02F5
:1026A0001B0A03431362002407238C600B60802104
:1026B000136A09061B021B0A0B431362FC22254BFB
:1026C000196A0A431A62FC22196A92010A431A62C1
:1026D000A022196AD2020A431A62E0B20021013430
:1026E00000F076F8142CF8D11B4B1C005A7852B22B
:1026F000002AFBDB194A5A80194B1A00597EC90976
:102700000129FBD0E421C90099803F21D970537E73
:10271000DB09012BFBD0C02300205B01136190700B
:1027200000F024F863785BB2002BFBDB0D4B0E4A04
:102730006380D379DB09012BFBD04123537010BD9B
:10274000FEE7C0460C000020FFFFFF0010E000E0A5
:1027500000ED00E000040040000C00401E400000BE
:10276000004000422140000000480042164A00B5E7
:102770001300517EC9090129FBD00138042816D85D
:102780001969124A0A400F211A615A788A4302F0E5
:102790004FF80308060B0300110001220A435A7088
:1027A00000BD11000322F9E711000222F6E7F02331
:1027B00011691B050B430F21136153788B431900DB
:1027C00002230B435370EBE700400042FFFFFFF092
:1027D000182330B51D00040045430820204A551930
:1027E0002856013014D0032912D808006343D1566B
:1027F000D31802F01DF802280E1B5868CB010221E5
:10280000184A9B181A1840321170012282405A60EF
:1028100030BD5868CB010621124A9B181A18403265
:102820001170012282405A609A61F1E75868CB0129
:1028300006210C4A9B181A1840321170012282405E
:102840005A605A61E4E75868CB010221054A9B1897
:102850001A1840321170012282409A60D8E7C046AF
:10286000A84C0000004400411823F0B50824584348
:10287000114A13181C5701341BD0012635005F681C
:102880008356BD400D4ADB019A18906805420BD172
:102890000C00601E8441D219403210783440033657
:1028A000A400B04320431070044A9B18002901D1B2
:1028B0005D61F0BD9D61FCE7A84C00000044004153
:1028C00018224243F8B52C4E0300B218127A52B2C5
:1028D000140001320ED0481C00240C280AD801F044
:1028E000A7FF0720202020202020200B0B0B0B000F
:1028F000012464422000F8BD092905D10021D8B285
:10290000FFF766FF0024F5E70A2902D1D8B208399B
:10291000F6E700240B29EDD1D8B20A39FFF758FFAA
:10292000E8E718204343F2185568F3562C00134A81
:10293000DB016E0817389B18C9B204409E19002CA1
:102940000DD00F2430363278090122401143C9B22C
:102950005B19317040331A7810431870D2E7320097
:102960000F27303216785B19BE4331431170403364
:102970001A7810431870BDE7A84C000000440041CD
:1029800010B50400FFF7BAFD014B1C6010BDC04636
:10299000100000200122024B52421A607047C046CC
:1029A00010000020164A10B51368591C26D0013BB0
:1029B0001360002B22D172B6124B134A0433934298
:1029C00013D9124A01211000147D0C42FCD02021A1
:1029D000148BFF319B085B0021431183D3610C4BA7
:1029E00013800123027D1A42FCD0BFF34F8F094BA5
:1029F000094ADA60BFF34F8FC046FDE710BDC046FD
:102A000010000020002000000302000000400041F0
:102A100002A5FFFF00ED00E00400FA0500230371AA
:102A2000016070479446F0B59E1E721E9641624644
:102A3000056892072F6836063A4332432A60072515
:102A400005AC24780068A401294021434268002491
:102A5000022B00D05C03114321434160F0BD30B52F
:102A6000C0250368AD031C6812052A402243C02418
:102A70000904A40221401143196003685A681443F1
:102A80005C6030BD0123026811680B43136003686A
:102A90001A68D207FCD4DA69D207F9D47047022346
:102AA000026811680B4313600268D3699B07FCD46A
:102AB00070470268137E9B0702D40379002BF9D17B
:102AC000002303717047002203685A83704703682C
:102AD000187E4007C00F70470368187EC009704712
:102AE000802302685B42117E0B43137670470368B4
:102AF000588B8007C00F704702230268518B0B432D
:102B0000538370470368187EC007C00F704703687F
:102B1000188DC0B2704703681A7ED207FCD589B2FF
:102B200019850123037118007047012203689A7503
:102B30007047012203681A75704700000368214A34
:102B400030B593422FD0204A93422FD01F4A934250
:102B50002FD01F4A93422FD01E4A93422FD01E4A95
:102B600093421FD10E2319220121032599401B48AE
:102B7000C024016099082B40AB40FC359D40890082
:102B80000918A4000859A843C0259D402B00034301
:102B90000B518023DB011A43114B5A805A7852B2F1
:102BA000002AFBDB30BD09231422DDE70A231522AE
:102BB000DAE70B231622D7E70C231722D4E70D23DD
:102BC0001822D1E700080042000C00420010004229
:102BD0000014004200180042001C004200E100E026
:102BE000000C0040F8B504000F0016001D00FFF7B0
:102BF000A5FF2000FFF746FF1C21BB000B4071071B
:102C00002268090C0B431360842322689375012FFB
:102C10001AD11021012E00D008390C4B69431868D5
:102C2000C00001F00FFE0722216802408B89520389
:102C3000DB04DB0C13438B81226803049089DB0CDB
:102C4000400B400318439081F8BDC0460C000020A3
:102C50000020704770B50F26CB1D013902003240AD
:102C6000D5B22C0000093034092A00DD07341C706D
:102C7000013B8B42F2D170BD10B50C000B4B1868B4
:102C8000FFF7E8FF21000A4B08311868FFF7E2FF61
:102C90002100084B10311868FFF7DCFF2100064BBC
:102CA00018311868FFF7D6FF202010BD0CA0800057
:102CB00040A0800044A0800048A0800008B4024BDF
:102CC0009C46103808BC6047792C0000704770475C
:102CD0003F20704713B56B460268D97107335468BB
:102CE00019000122A04716BD70B50A260B7892B0D4
:102CF0006E44023305000B703C220021300001F0CD
:102D00006EFE394801AC0690384824210790062011
:102D100020776846364AA1742281364A364BA28112
:102D2000FD3AFF3A8018C177684623390630C177EB
:102D300068460730C17702A8C1770720F2770326DB
:102D400008316944C87703A9CE7710212B366E4429
:102D50003170092621851F3169440E700CA9053E8A
:102D60000E7033212380022369440B7006360DA9AF
:102D70000E7022493536A1863B216E44307010A872
:102D80006274E27702703D3269446A440B701370DA
:102D900040210022E37023716371A37341336B44BC
:102DA000218719705A702B7DC039A370A372637785
:102DB0000133DBB2A3776A7D0B200D006844154315
:102DC000C5773120684403703A23501C6B44187057
:102DD000412302320A436B441A7021004222084800
:102DE00000F018FD12B070BD100104240206052485
:102DF0000904000001020000080B000007050000A4
:102E0000DC05002008B4024B9C46103808BC604723
:102E1000E92C000070B5027D0B790C0000259A4268
:102E20000BD10B784E78A12B09D1212E05D1072289
:102E30001B491C4800F0EEFC0135280070BD212B19
:102E4000FBD1202E22D107221549164800F018FC8C
:102E50009622134BD200196891421DD1DB79DB0712
:102E60001AD4FA20FFF78CFD00210E4800F0DAFD9D
:102E70000125232EE1D1E378A2781B0213430A4AED
:102E800000210848136000F0CDFDD6E7222EEFD1D7
:102E90008A78034BDA71DBE7FFF77CFDE4E7C04695
:102EA00018000020DC0500201400002008B4024BAC
:102EB0009C46103808BC6047152E000010B508224B
:102EC0000021024801F08BFD10BDC0461800002013
:102ED00010B5417D006A013100F0FCFA034B1B681C
:102EE00001335A1E9341181810BDC046200000201F
:102EF00010B5417D006A023100F002FB10BD10B533
:102F0000417D006A023100F0C9FA10BD70B50D00B4
:102F1000417D0400130002312A00006A00F0C4FB66
:102F2000002801D10123636070BD000010B5054C7D
:102F300023685A1C04D103685B699847030020602A
:102F4000180010BD20000020074A0300106810B5CB
:102F5000411C03D001235B42136010BD597D186AE8
:102F6000013100F051FBF8E72000002010B5FFF719
:102F700077FAF423FF330024984207D9044B0A2040
:102F8000DC79631E9C41E4B2FFF7A0FA200010BD7B
:102F9000180000200020704770470000FA239B00B3
:102FA00010B583600F4B0022C38203002833836176
:102FB0000D4B04004260C261180050332361083099
:102FC000631D21622060DA778323A362813BE36281
:102FD0008033236301F0DAFA2100103101F0A7FAFF
:102FE000200010BD03020000F8500000022110B5BF
:102FF000094B1A68437D5B01D318FF339C7A214348
:103000009972437D0133DBB25B01D3180122FF3398
:10301000997A0A439A7210BD940A002010B50249A9
:103020000248FFF7BBFF10BDDC0500208005002033
:10303000704710B5040001F0F7FB200010BD000040
:10304000F0B5822919D1C3B2294D5A01AA18916944
:10305000284C80010C40C0218905214391612649FB
:10306000083340187021506128685B011A5C8A435C
:10307000110030220A431A54F0BD0029FCD1C026A9
:10308000C1B21B4C4B01E3189A681A4DB6052A4091
:1030900032439A60194A800182185A600A00072751
:1030A000246808325201115DB9430F0001213943F0
:1030B00011559F6910493D4040182E439E6158614B
:1030C0007020115D8143080010210143115599685A
:1030D0000B48A21808408021490301439960996870
:1030E000890B89039960402311790B431371C3E75E
:1030F000940A0020FFFFFF8F08060020C807002069
:10310000FF3F00F0EFF3108303600123436072B6CA
:1031100070470368002B02D162B6BFF36F8F704710
:1031200073B5836D0400002B1BD10600A8363578DB
:103130006846FFF7E7FF019BEDB2013B02D335780C
:10314000EDB2FAE768460193FFF7E3FF002D01D1E6
:10315000002076BD2300A4331868A0342368C01A69
:10316000F7E76846FFF7CEFF22000025019BF43207
:10317000013B02D31578EDB2FAE768460193FFF7F9
:10318000C8FF002DE4D02300F0331868EC34E5E7E5
:1031900010B5436D4468DBB25A01A2189168094822
:1031A00008330840802149030143916091685B0125
:1031B000890B890391602268D318402219790A4348
:1031C0001A7110BDFF3F00F0F7B5436D4268DBB2E6
:1031D000190004000831106849014118C979C9076C
:1031E00011D55B01D21893689B049B0C0CD1200075
:1031F000FFF7CEFF63681A68636DDBB208335B01CB
:10320000D3187F22DA71F7BDE16D002923D12100A7
:10321000A4310B6023000125AC33E565684653609B
:10322000FFF770FF260020002100019BA836013B1C
:10323000F430F5315A1C33D0357002785F1ED2B2AB
:103240000A700A78002A04D120000193FFF7A0FF3A
:10325000E8E73B00EEE72100F0310B600023E36577
:103260002300603353606846FFF74CFF01252600BA
:1032700020002100019BF436013BA830F5315A1C97
:103280000ED0357002785F1ED2B20A700A78002A1A
:1032900004D120000193FFF77BFFE8E73B00EEE756
:1032A00068460193FFF735FFA4E737B56B46DC1D91
:1032B00000230D00237001F069F9210001F0F4F8FA
:1032C0002B681818286020783EBD00000078002880
:1032D00010D00121084B1B681A898A431A810822E1
:1032E000198B0A431A830422198B0A431A8300227A
:1032F000024B1A607047C046940A00208C0A0020D6
:1033000010B50F4A93699B0B9B03936113680222CC
:10331000FF331A729879823A02439A711A7A9207A5
:10332000FCD57F24074A2140937A0800A343190063
:10333000802301439172917A5B420B43937210BDDB
:10334000940A00200050004110B50C0001F01EF955
:10335000210001F0DCF8002804D1034A93699B0B9B
:103360009B03936110BDC046940A0020F8B50D0080
:10337000832A19D1CBB23B4C5A01A21891693A4821
:10338000AD010840C021890501439161374920689A
:103390006D187021083355615B011A5C8A43110076
:1033A00040220A431A54F8BD022A55D1304A8B00F4
:1033B0009858002802D003685B699847F82001F00C
:1033C0002FFA0400274E2B4B466003604022002159
:1033D000083001F004FB22000023A032A3646565DD
:1033E000E3642365A365E3655360D36413721360DC
:1033F00013654C3213725372FF222B001340590194
:1034000071188868184F08330740C020800538437A
:103410008860306807265B01195CAD00B1430E007F
:103420000321314319542300616D60681140490143
:10343000411860334B60616D63680A401B6852013C
:103440009B180122FF33997A20000A439A72FFF7F2
:103450009FFE074B5C51A6E711002800FFF7F0FD27
:10346000A1E7C046940A0020FFFFFF8F0806002056
:10347000E00500206051000070B505000124064BF6
:10348000A200D258002A06D0210028000134FFF7FC
:103490006DFF0A2CF3D170BDB40500200B4BCAB2EE
:1034A0000B488901C9185301C31859619969083239
:1034B000890B89039961036852019A180223D37119
:1034C0005179823B0B4353717047C0460806002078
:1034D000940A0020084B8A00D05810B5002803D069
:1034E00003689B68984710BDC9B2044B490159183D
:1034F00088688004800CF6E7E0050020940A00202C
:1035000010B50C00FFF7E6FF00280CD0064BE4B224
:103510001B68083464011C19802362795B421343E1
:1035200063710223E37110BD940A0020F0B51C0002
:10353000304B85B01B6807000D000292002B55D060
:103540002D4E3178C9B2002902D11920FFF78CF92C
:1035500064233370294BAA00D058002808D0036890
:1035600022005B68029998470400200005B0F0BD76
:1035700029003800FFF7AEFF844204D92900380043
:10358000FFF7A8FF04000121EBB21D4E03935B017E
:103590000193F21893689B0B9B039360019A336825
:1035A00002989B18FF335A7A0A435A72154BA901A5
:1035B000C918220001F00AFA002CD6D029003800E0
:1035C000FFF788FF0028D0D14021039B32680833E1
:1035D0005B01D3181879014319710121D971019B3D
:1035E000D318FF339A7A0A439A72BEE701246442E1
:1035F000BBE7C0468C0A0020FC050020E005002047
:10360000940A0020C807002013B56B46DC1D220079
:103610000123FFF78BFF012801D1207816BD01207F
:103620004042FBE770B5CBB2124A13485C018901F6
:103630008918021951609168104D08330D4080219E
:1036400049032943402591609168890B8903916062
:1036500001685A018A1816793543157195796D06F6
:10366000FCD55B01C918CB79DB07FCD50019806854
:10367000C0B270BDC8070020940A0020FF3F00F0D0
:1036800070B50D0000211400FFF7CCFFA04200D957
:10369000200000230349A34203D0CA5CEA5401334B
:1036A000F9E770BDC8070020F0B51E003F4B85B09C
:1036B0001B680F000192002B3FD08023DB019E424C
:1036C0003BD83B4C2178C9B2002902D11A20FFF720
:1036D000CBF8642300252370364BBA01D31802932C
:1036E000002E2CD0344B1B680393FF233B401C005F
:1036F00000930834039B64011C19A379DB0921D0D2
:103700002E4B2F49186801F09DF82E4B1721584376
:1037100001F098F82C4BE279920713D4DA5D002A75
:1037200001D10138F7D20122DA55009B5A01224B10
:103730009B189A69920B92039A6101256D422800A9
:1037400005B0F0BD0022204B3400DA553F2E09D9D8
:10375000009B40245A01184B9B188022996912063D
:103760000A439A6122000199029801F02FF9009B07
:10377000A1045A01104B890C9B18029A2D195A6109
:103780009A69361B920B92030A439A61009B039A33
:1037900008335B01D3180222DA715979823A0A435D
:1037A0005A71019B1B1901939AE7C0468C0A0020AD
:1037B000FD05002008060020940A00200C000020CF
:1037C00040420F0070110100FF05002070B50D0090
:1037D0001C000D4BAE01F61811003000220001F064
:1037E000F5F8EDB209496D014D196E61AB69084AF2
:1037F00020001340AB61AB69A2049B0B920C9B03AE
:103800001343AB6170BDC04608060020940A002037
:10381000FF3F00F0F7B5104B01901B780F0015002B
:10382000002B0CD10D4B16001C78002C09D00C4E2F
:103830000C4834882018641901F0C8F83480280036
:10384000FEBD002EFBD03A19330000210198FFF78E
:10385000BDFF2418361AF4E788090020890A0020E1
:103860008A0A002089090020F8B50F0016000024FC
:10387000012A26D9100001F095F80500380001F062
:103880007BF9032302220130400028706B709642BE
:103890000DD9397800290AD0531CDBB20137A9545D
:1038A0009E4203D00232EC54D2B2F0E7320029003B
:1038B0000548FFF7AFFF441EA041C4B2280001F045
:1038C0007BF82000F8BDC046DC050020F0B50024E0
:1038D000012685B0184B0F0069461E700500009444
:1038E000FFF7E3FC154B01A90B806A3BFF3BCB7153
:1038F0005A330B72009B8C7109334B800E4B4E7107
:1039000008711C703A00092F0FD00D4F09223E702C
:103910000C4E280000943480FFF77CFF6946280095
:10392000FFF7C3FC328808493C702800FFF772FF9C
:10393000012005B0F0BDC046880900200902000042
:10394000890A00208A0A00208909002070B5CE78F3
:1039500092B005000C00022E0BD18B79C9792C484E
:1039600009021943FFF7B2FF411E8841C0B212B0ED
:1039700070BD00F00BFE210000F0AAFD002803D06E
:10398000C117081AC00FF2E7012E0ED1E279A37910
:1039900012021A431F49112A13D8D2B2002A10D09A
:1039A0002800FFF737FF0120E1E7032EDFD1A378DE
:1039B000002B08D1E279A37912021A431649032A8F
:1039C000EBD90A78ECE7022B08D1E279A37912024D
:1039D00012491A432800FFF747FFC8E7012B05D11A
:1039E000E279A37912021A430D49F3E7032BBED102
:1039F0004122010001A800F0F2FF00F0C7FD01A97B
:103A000000F076FDE279A37912021A4301A9E1E7F9
:103A1000DC0500209A5100008A5100007C51000012
:103A20008E510000CBB204495B01C9188B699B0B16
:103A30009B038B617047C046940A002037B5050090
:103A400048780C000B2810D800F0F2FE061B0F2B54
:103A50000F404561494C5A5D097801AA002906D1F9
:103A6000022311802800FFF7B1FE01203EBD002394
:103A70001380284B1B78012B00D1137002230021E7
:103A8000F0E78A780023012A03D101AA1380224B90
:103A9000F0E7204A1370214A93699B0B9B039361C3
:103AA000E3E78C78012C06D100211B4B01AA1C7086
:103AB00011702300D6E70120002CD7D1154B174AEF
:103AC000187093699B0B9B039361CFE7897828005B
:103AD000FFF716FCC9E72800FFF738FFC6E7012308
:103AE0000F4ACCE70B780020DB06BFD12800FFF798
:103AF000C3FCA2780A4B0B481A60FFF777FACAE7B3
:103B00000123094ABBE78A78074B1A60C3E7002004
:103B1000ACE7C046FE05002006060020940A0020FF
:103B20008C0A002080050020900A00204A4BF7B53F
:103B30001E780500002E00D07EE0484C23689A8B4A
:103B400012070DD5082231009A833000FFF778FA6A
:103B500010222368FF33997A0A439A72404B1E6001
:103B600023689A8B52071FD504229A833D4A137803
:103B7000002B0AD01378013BDBB213701378002BB3
:103B800003D101211A20FEF76FFE374A1378002B6C
:103B90000AD01378013BDBB213701378002B03D1EA
:103BA00001211920FEF760FE2368FF331A7A92067E
:103BB00003D52022597A0A435A721A7AD20623D59B
:103BC00069460800294AC0CAC0C0A268920B920385
:103BD000A2604022587902435A7160230A78280073
:103BE0001A422AD1FFF72AFF2368FF33002827D083
:103BF0008022997952420A439A711A7A520603D561
:103C00004022597A0A435A727F2601252368FF33DE
:103C10001E722F00236808377F01DB19DB79002B28
:103C200007D0134BAA00D05800280DD003681B689A
:103C300098470135082DECD1F7BDFFF785FBD3E799
:103C400020210C4A9171D8E729000B48FFF7A4F90D
:103C50002368DF19FE71ECE7890A0020940A00202E
:103C60008C0A0020FD050020FC050020C80700206C
:103C7000E0050020FF5000418005002010B50248FB
:103C8000FFF754FF10BDC046DC05002080235B0019
:103C900003800023436007330372704783000148A9
:103CA000C0187047B4050020836C402B09D03F2218
:103CB000036CC154036C013313400364836C013300
:103CC00083647047F7B505006846FFF71BFA0026C6
:103CD0004022019B013B02D32E6D961BFAE76846FA
:103CE0000193FFF716FAAB6D6846002B4FD1FFF733
:103CF00009FA2900019BA831013B5A1C0CD00C7811
:103D00005A1EE4B2002C05D168460193FFF701FA70
:103D10002000FEBD1300F0E7684601930024FFF782
:103D2000F8F92A002900A0321368A431B4420ED059
:103D3000086898420BD92800591CEB1811606033B1
:103D400019780830C9B2FFF7AFFF0134E9E7096815
:103D50009942DDD1002313600133AB656846FFF75C
:103D6000D1F92F002A000021019BA837013BF53231
:103D7000581CC9D0397010785E1E002805D011700B
:103D800028000193FFF704FAEBE73300F0E7FFF7B1
:103D9000B9F92900019BF431013B5A1C06D00C787B
:103DA0005A1EE4B2002CAFD01300F6E76846019328
:103DB0000024FFF7AEF92A002900EC321368F03135
:103DC000B44202D0086898421DD8096899429FD130
:103DD000002368461360AB65FFF794F92F002A00B3
:103DE0000021019BF437013BF532581C00D18BE7D1
:103DF000397010785E1E002811D0117028000193D0
:103E0000FFF7C6F9EAE72800591CEB181160AC333C
:103E100019780830C9B2FFF747FF0134CBE7330008
:103E2000E3E710B50400FFF74DFF206D10BD10B59E
:103E30000400FFF747FF236D002B03D0E36CE41869
:103E4000207A10BD01204042FBE7F7B517000E00B5
:103E50000400FFF737FF6846FFF754F93F220025BB
:103E60009446019B013B5A1C19D0BD4215D2226DCC
:103E7000002A12D00121226D4942002A0AD0604650
:103E8000E26CA218117AE26C01320240E264226D07
:103E9000013A226571550135E7E7013BE3E76846E2
:103EA0000193FFF736F92800FEBD0000014B024ADE
:103EB0001A607047940A002000500041F7B50024B2
:103EC000514B012105001A201C70FEF781FC0121D5
:103ED0001A20FEF7C9FC4D4B012119201C70FEF77A
:103EE00077FC01211920FEF7BFFC2023484A0F2050
:103EF000D1690B43D361012246490B7813430B7000
:103F0000454B19788143197006211C78214319709B
:103F100042490C7822430A701A7802401A706022D3
:103F200019780A431A703E4B3E4A5A805F78FF095F
:103F3000FCD13D48FEF78EFA01233C4C3C4E2268F2
:103F4000300011780B43137080223900520000F0CA
:103F500046FD22689378DB07FCD456621F26354B5A
:103F60001B68590B980C9B01314030405B0FB142EC
:103F700000D105211F2800D10238072B00D1043BB6
:103F800031408901178D01912B4930400F40019933
:103F900039431185118D0700B1430800384310855E
:103FA000118D1803254B7F260B4003430C201385EE
:103FB0000823D17881430B430321D3702268D3783F
:103FC0008B4301390B43D37022681378334013704D
:103FD000042322681678334313702268C12413899E
:103FE000A40083431648138103591B021B0A035183
:103FF00080230360137813481943012311702B7039
:104000000021FEF763FEF7BDFD050020FC05002042
:1040100000040040584400413C44004159440041E0
:10402000000C0040064000007D3C0000940A002087
:10403000980A0020246080003FF8FFFFFF8FFFFFF9
:1040400000E100E0800500200120704710B5036802
:10405000014A1B6A984710BD13040000FC30006A37
:10406000704787239B00C018C36880204000C01A97
:1040700070470300FC331A6A002A03D0DB69C018BA
:10408000007D704701204042FBE710B50400006945
:10409000FEF7F8FC22000023FC329361D361136227
:1040A00087229200A4186360A360E36010BD872399
:1040B00010B59B00C218D368002BFCD10069FEF735
:1040C000F8FC10BDF02001403039484248417047AB
:1040D000F0231B011940802306209B0099420AD03F
:1040E0000133FF330130994205D0802302385B0051
:1040F000994200D0002070470F2001400020012984
:1041000003D00239481E8141481C70478B23F0B50B
:10411000182685B002919B000400C05C3300082182
:104120004343324D1700EB185956FEF7C9FB304B8D
:104130000821E05C33004343EB185956FEF7C0FBFF
:104140002C4BE25C0393022A09D11133E05CFF2877
:1041500005D008214643AE197156FEF7B1FB8C26F7
:10416000B600A05DFF2819D00121FEF731FB18220F
:10417000A35D21495A43AB56AD18DB0158188D2178
:10418000890060501D4901225B188E21890063500F
:1041900069688A408F21890062501A600122029B5F
:1041A00011002069FEF71EFD39002000FFF790FF87
:1041B000390005002000FFF79FFF390006002000AE
:1041C000FFF780FF33000090290020690122FEF7ED
:1041D00029FC0B4B2069E25C039BE15CFEF73FFC92
:1041E0002069FEF75CFC05B0F0BDC046A84C00009D
:1041F0002D0200002F020000184400411444004129
:104200002E020000802210B504005200002100F0B0
:10421000E6FB23000022FC335A6020009A60DA603B
:1042200010BD0000F7B51D0008AB1B78040000931B
:1042300009AB1B781600019300234360FA239B000F
:104240008360114B0F00083303601430FFF7DAFF6F
:1042500020002130FF30FFF7D5FF8B236A469B00FB
:104260002761E654094B1278E554094B2000E254CB
:104270006A46084B1279E2548C22313BFF3B920094
:10428000A3541032A354FEBDAC5100002D02000017
:104290002E0200002F020000F7B5EFF31083009309
:1042A0000123019372B680260200FF25019BFC3298
:1042B0007600013B5C1C0FD0D4685F1EB44209D06D
:1042C00054680155546801342C405460D46801345A
:1042D000D460EEE73B00EDE768460193FEF719FF77
:1042E000F7BD13B5EFF3108300930123019372B66A
:1042F000019B5A1E0192002B15D00300FC33DA6893
:10430000002A0DD09A68845C9A680132D2B29A6011
:10431000DA68013ADA606846FEF7FBFE200016BD57
:1043200001246442F7E701246846FEF7F2FE644286
:10433000F4E710B504000069FEF7D9FB002805D0AA
:104340002069FEF7E4FB2069FEF7D6FB2069FEF743
:10435000BEFB00281BD02069FEF7D9FB010020001E
:104360001430FFF799FF8C239B00E35CFF2B0ED0EA
:104370002300FC331A6A80235B009B1A092B06DC9E
:104380008D238F229B009200E358A2581A60206967
:10439000FEF7B8FB00280ED087239B00E318DB68EC
:1043A000002B14D020002130FF30FFF79AFFC1B25C
:1043B0002069FEF7B0FB2069FEF78EFB002805D0D0
:1043C0002069FEF78DFB2069FEF77DFB10BD20699B
:1043D000FEF7AFFBEFE70000F8B5040000690D0041
:1043E000FEF790FB87239B00E618002802D0F368B5
:1043F000002B34D001278022F3685200934223D14E
:10440000EFF310833B4210D1174B5B68DB05DB0DEC
:10441000F1D0103B5BB2002B10DAF13A1340083BAD
:104420009B08124A9B009B181B682069FEF76AFBD9
:104430000028E0D02000FFF77CFFDCE79B08C033BA
:104440000B4A9B009B58F0E720002130FF302900E9
:10445000FFF722FF2069FEF768FB0120F8BD290065
:104460002069FEF758FBF8E700ED00E01CED00E0E6
:1044700000E100E010B504001430FFF732FF8C2398
:104480009B00E35CFF2B0ED02300FC331A6A8023D1
:104490005B009B1A0A2B06DD8E238F229B00920065
:1044A000E358A2581A6010BD70B50E00002544688C
:1044B000002C0BD0236831005B682000984700284F
:1044C00002DB2D18E468F3E701256D42280070BD7A
:1044D00070B50D004468002C08D0236829009B6843
:1044E00020009847002802D1E468F4E7200070BD5E
:1044F00070B50D004468002C07D023682900200007
:10450000DB689847E4682D18F5E72C7070BD70B52E
:104510000D004468002C08D0236829001B68200087
:104520009847002802D1E468F4E7200070BDF8B590
:1045300042788B790D00017A9B18040000208B4291
:1045400022DC6368834219D16560002623786A7192
:10455000EA792B719B182370AB79B34213D9AB68FE
:10456000B7006078DF19FFF799FB3B6801360360FD
:104570006378F6B201336370EEE70B00D968002967
:10458000FBD1DD60E1E70120F8BD000070B5012638
:10459000054D064C2B68334203D12000FFF776FB14
:1045A0002E60200070BDC046980B00209C0B0020A0
:1045B000F7B506000D000C008B180193019B671BDB
:1045C0009C4207D0336821781B683000984701343B
:1045D0000028F3D13800FEBD70B5040008000D00BE
:1045E00000F0CAFA2368020029005B68200098479F
:1045F00070BD10B50B1E02D0FFF7EEFF03001800D0
:1046000010BD10B503688A685B680968984710BDDB
:1046100010B50249FFF7E0FF10BDC046E0510000B1
:1046200070B50500FFF7EDFF04002800FFF7F0FF6D
:10463000201870BD70B50400FFF7DBFF05002000F7
:10464000FFF7E6FF401970BD10B5040000680028B0
:1046500001D000F0B1F9200010BD10B504000068D1
:10466000002801D000F0A8F900232360A360636054
:1046700010BD70B504000D000068013100F060FA53
:10468000031E01D0012028C470BD036810B50400CA
:10469000002B04D043688B4201D3012010BD2000C1
:1046A000FFF7E7FF0028F9D0A368002BF5D12268B7
:1046B0001370F2E770B50E00110004001500FFF74B
:1046C000E4FF002804D12000FFF7C7FF200070BDE1
:1046D0002A003100A560206800F078F900232268E4
:1046E000A1685354F2E7002370B504000D00036085
:1046F00043608360994207D0080000F03DFA29002A
:1047000002002000FFF7D6FF200070BD70B5050045
:1047100000680C00002811D0096800290CD0A2689C
:104720006B68934208D300F051F90023A26829680E
:10473000AA608B54A36070BD00F03EF923682B6023
:1047400063686B60A368AB60002323606360F1E77C
:1047500010B50400884201D0FFF7D8FF200010BD3B
:10476000F7B504000F001600002903D100230193C0
:104770000198FEBD01230193002AF9D08368D51862
:104780002900FFF782FF0028F0D02368A2683900D3
:104790009818320000F01AF900222368A5605A55D3
:1047A000E6E707B56B46D971073301221900FFF719
:1047B000D7FF0EBD836810B5934208D90468096815
:1047C000A01800F0E0F9002801D0001B10BD012066
:1047D0004042FBE710B50022FFF7ECFF10BD704729
:1047E00010B5FDF74BFF00F0B9F8FFF7F8FF012017
:1047F000FDF76CFE084C2000FFF760FB2000FEF781
:1048000065FDFDF7F9FCFDF767FD044B002BFAD0C1
:1048100000E000BFF7E7C046DC0500200000000014
:1048200010B500F0BFF810BD10B500F0C5F810BD10
:1048300002B4714649084900095C49008E4402BC33
:104840007047C046002243088B4274D303098B4251
:104850005FD3030A8B4244D3030B8B4228D3030C50
:104860008B420DD3FF22090212BA030C8B4202D3F2
:104870001212090265D0030B8B4219D300E0090A1A
:10488000C30B8B4201D3CB03C01A5241830B8B4223
:1048900001D38B03C01A5241430B8B4201D34B030C
:1048A000C01A5241030B8B4201D30B03C01A524171
:1048B000C30A8B4201D3CB02C01A5241830A8B42F6
:1048C00001D38B02C01A5241430A8B4201D34B02DF
:1048D000C01A5241030A8B4201D30B02C01A524143
:1048E000CDD2C3098B4201D3CB01C01A52418309F7
:1048F0008B4201D38B01C01A524143098B4201D331
:104900004B01C01A524103098B4201D30B01C01A5B
:104910005241C3088B4201D3CB00C01A52418308D5
:104920008B4201D38B00C01A524143088B4201D302
:104930004B00C01A5241411A00D201465241104662
:104940007047FFE701B5002000F006F802BDC04641
:104950000029F7D076E770477047C04670B500264B
:104960000C4D0D4C641BA410A64209D1002600F08A
:1049700061F90A4D0A4C641BA410A64205D170BD12
:10498000B300EB5898470136EEE7B300EB58984771
:104990000136F2E78800002088000020880000200F
:1049A0009800002010B5034B0100186800F06AF869
:1049B00010BDC0462400002010B5034B010018684C
:1049C00000F016F810BDC04624000020002310B5EA
:1049D0009A4200D110BDCC5CC4540133F8E7030007
:1049E0001218934200D1704719700133F9E70000A3
:1049F00070B50500002910D00C1F2368002B00DAC9
:104A0000E418280000F0D8F81D4A1368002B05D1DF
:104A100063601460280000F0D0F870BDA34209D98B
:104A2000216860188342F3D118685B6841182160DF
:104A3000EEE713005A68002A01D0A242F9D919689A
:104A40005818A0420BD120680918581819608242E2
:104A5000E0D110685268411819605A60DAE7A04244
:104A600002D90C232B60D5E721686018824203D15C
:104A7000106852684118216062605C60CAE7C046F5
:104A8000A80B0020032370B5CD1C9D4308350600FC
:104A90000C2D1ED20C25A9421DD8300000F08CF838
:104AA000254A14682100002919D1244C2368002BC1
:104AB00003D1300000F04EF820602900300000F0F3
:104AC00049F8431C2BD10C233000336000F075F8FB
:104AD00003E0002DDFDA0C233360002070BD0B688B
:104AE0005B1B19D40B2B03D90B60CC18256003E09A
:104AF0004B688C420DD11360300000F05EF820004E
:104B000007220B30231D9043C31AE7D05A42E250CC
:104B1000E4E763600C00EFE70C004968C3E7032398
:104B2000C41C9C43A042E1D0211A300000F012F8CE
:104B3000431CDBD1C7E7C046A80B0020AC0B00200C
:104B400010B5034B0A000100186800F037F810BDDB
:104B500024000020002370B5064C050008002360E7
:104B600000F05AF8431C03D12368002B00D02B60BF
:104B700070BDC046B40B00200023C25C0133002A84
:104B8000FBD1581E704710B50378002B0FD10B785E
:104B90005A4253415B42184010BD0023CA5C002AB0
:104BA000FAD0C45C944201D10133F7E701300378B5
:104BB000002BF2D11800EFE770477047F8B50700F7
:104BC0000D001600002905D11100FFF75BFF04005E
:104BD0002000F8BD002A03D1FFF70AFF3400F7E7F1
:104BE00000F012F82C00B042F2D231003800FFF78A
:104BF00049FF041EECD029003200FFF7E7FE290030
:104C00003800FFF7F5FEE3E70B1F1B68181F002BAA
:104C100001DA0B58C0187047044A1368002B00D102
:104C2000034B1818106018007047C046B00B0020E6
:104C3000B80B0020F8B5C046F8BC08BC9E467047CB
:104C4000F8B5C046F8BC08BC9E4670474154004FBA
:104C50004B0041392F413947204D6F64756C6520F9
:104C6000686164207475726E6564206F6E2E004EEC
:104C70006F77207475726E6E696E67207468652038
:104C800041392F413947206F6E2E004D616475699F
:104C90006E6F2041392F413947205465737420428B
:104CA0006567696E21000000000000000B00000035
:104CB0000200000004000000FF00FFFFFFFF0B00E8
:104CC000000000000A0000000200000004000000D4
:104CD000FF00FFFFFFFF0A00000000000E000000C1
:104CE0000800000004000000FF00FFFFFFFF0E00AF
:104CF0000000000009000000040000001C0000008B
:104D0000FF00010001000900000000000800000091
:104D1000040000001C000000FF0000000000100064
:104D2000000000000F000000040000001C00000054
:104D3000FF00010301030F00000000001400000049
:104D4000050000002C000000FF000200020004002B
:104D50000000000015000000050000002C0000000D
:104D6000FF00030003000500000000000600000033
:104D7000040000001C000000FF000001000106000C
:104D80000000000007000000040000001C000000FC
:104D9000FF000101010107000000000012000000F7
:104DA000040000001C000000FF00000300030200DC
:104DB0000000000010000000040000001C000000C3
:104DC000FF000002000200000000000013000000CD
:104DD000050000002C000000FF000300030003009A
:104DE0000000000011000000040000001C00000092
:104DF000FF000102010201000000000002000000AB
:104E000001000000020000000000FFFFFFFF0200A1
:104E10000100000008000000010000001800000070
:104E20000200000400040800010000000900000066
:104E30000100000018000000030001040104090043
:104E4000000000000400000001000000000000005D
:104E50000400FFFFFFFF0400000000000500000049
:104E600001000000000000000500FFFFFFFF05003B
:104E7000010000000200000001000000000000002E
:104E80000A00FFFFFFFF0200000000001600000004
:104E90000200000004000000FF00FFFFFFFF06000B
:104EA00000000000170000000200000004000000E5
:104EB000FF00FFFFFFFF0700000000000C000000E4
:104EC0000300000004000000FF00FFFFFFFF0C00D4
:104ED000010000000A0000000300000004000000C0
:104EE000FF00FFFFFFFF0A00010000000B000000B1
:104EF0000300000004000000FF00FFFFFFFF0B00A5
:104F000001000000030000000B000000040000008E
:104F1000FF00FFFFFFFFFF00000000001B0000007C
:104F20000B00000004000000FF00FFFFFFFFFF0078
:104F3000000000001C00000006000000000000004F
:104F4000FF00FFFFFFFFFF0000000000180000004F
:104F50000600000000000000FF00FFFFFFFFFF0051
:104F60000000000019000000060000000000000022
:104F7000FF00FFFFFFFFFF00010000001600000020
:104F80000300000000000000FF00FFFFFFFFFF0024
:104F900001000000170000000300000000000000F6
:104FA000FF00FFFFFFFFFF000000000016000000F1
:104FB0000200000000000000FF00FFFFFFFFFF00F5
:104FC00000000000170000000200000000000000C8
:104FD000FF00FFFFFFFFFF000000000013000000C4
:104FE0000200000000000000FF00FFFFFFFFFF00C5
:104FF000000000001000000002000000000000009F
:10500000FF00FFFFFFFFFF00000000001200000094
:105010000200000000000000FF00FFFFFFFFFF0094
:10502000000000001100000002000000000000006D
:10503000FF00FFFFFFFFFF00000000000D00000069
:10504000040000000C000000FF000100FFFF0D0045
:105050000000000015000000050000000C0000002A
:10506000FF000300FFFFFF0000000000060000003B
:10507000040000000C000000FF000001FFFFFF0023
:105080000000000007000000040000000C00000009
:10509000FF000101FFFFFF0000000000030000000F
:1050A0000100000002000000FF00FFFFFFFFFF0003
:1050B00000000000020000000100000002000000EB
:1050C0001400FFFFFFFF0200000000001E000000B0
:1050D0000400000006000000FF00FFFF00010A00BE
:1050E000000000001F000000040000000600000097
:1050F000FF00FFFF01010B000000000000000000A6
:10510000D52C00000D2F0000D12C0000F12E000046
:10511000D12E0000492F00002D2F0000CD2C0000C3
:10512000CF2C0000BD2E00006D2F0000FF2E0000D0
:10513000E92C0000512C0000152E0000792C0000F5
:10514000F0FFFFFF00000000AD2E0000052E000064
:10515000952F0000BD2C00000000000000000000A2
:10516000C93100004B3E0000233E00002F3E0000EE
:10517000313000003330000021310000417264758D
:10518000696E6F205A65726F000004030904417252
:105190006475696E6F204C4C430012010002EF02EF
:1051A000014041234D800001010203010000000085
:1051B00000000000D9430000B1450000634000003A
:1051C000AF4000005D4000007544000073400000E7
:1051D0004D4000000D4100008B40000049400000A0
:0851E0000D0A000000000000B0
:1051E80005000000090000000600000040420F0012
:1051F800FFFFFFFFFFFFFFFF00C2010000000800E4
:10520800FFFFFFFF28000020000000000000000052
:105218000000000000000000000000000000000086
:105228000000000000000000000000000000000076
:105238000000000000000000000000000000000066
:105248000000000000000000000000000000000056
:105258000000000000000000000000000000000046
:105268000000000000000000DD20000045230000D1
:105278001D300000AD3E0000B52000000000000019
:04000003000023F1E5
:00000001FF
